{
  "contractName": "CCR",
  "abi": [
    {
      "inputs": [],
      "stateMutability": "nonpayable",
      "type": "constructor"
    },
    {
      "anonymous": false,
      "inputs": [
        {
          "indexed": true,
          "internalType": "address",
          "name": "owner",
          "type": "address"
        },
        {
          "indexed": true,
          "internalType": "address",
          "name": "approved",
          "type": "address"
        },
        {
          "indexed": true,
          "internalType": "uint256",
          "name": "tokenId",
          "type": "uint256"
        }
      ],
      "name": "Approval",
      "type": "event"
    },
    {
      "anonymous": false,
      "inputs": [
        {
          "indexed": true,
          "internalType": "address",
          "name": "owner",
          "type": "address"
        },
        {
          "indexed": true,
          "internalType": "address",
          "name": "operator",
          "type": "address"
        },
        {
          "indexed": false,
          "internalType": "bool",
          "name": "approved",
          "type": "bool"
        }
      ],
      "name": "ApprovalForAll",
      "type": "event"
    },
    {
      "anonymous": false,
      "inputs": [
        {
          "indexed": true,
          "internalType": "bytes32",
          "name": "role",
          "type": "bytes32"
        },
        {
          "indexed": true,
          "internalType": "bytes32",
          "name": "previousAdminRole",
          "type": "bytes32"
        },
        {
          "indexed": true,
          "internalType": "bytes32",
          "name": "newAdminRole",
          "type": "bytes32"
        }
      ],
      "name": "RoleAdminChanged",
      "type": "event"
    },
    {
      "anonymous": false,
      "inputs": [
        {
          "indexed": true,
          "internalType": "bytes32",
          "name": "role",
          "type": "bytes32"
        },
        {
          "indexed": true,
          "internalType": "address",
          "name": "account",
          "type": "address"
        },
        {
          "indexed": true,
          "internalType": "address",
          "name": "sender",
          "type": "address"
        }
      ],
      "name": "RoleGranted",
      "type": "event"
    },
    {
      "anonymous": false,
      "inputs": [
        {
          "indexed": true,
          "internalType": "bytes32",
          "name": "role",
          "type": "bytes32"
        },
        {
          "indexed": true,
          "internalType": "address",
          "name": "account",
          "type": "address"
        },
        {
          "indexed": true,
          "internalType": "address",
          "name": "sender",
          "type": "address"
        }
      ],
      "name": "RoleRevoked",
      "type": "event"
    },
    {
      "anonymous": false,
      "inputs": [
        {
          "indexed": true,
          "internalType": "address",
          "name": "from",
          "type": "address"
        },
        {
          "indexed": true,
          "internalType": "address",
          "name": "to",
          "type": "address"
        },
        {
          "indexed": true,
          "internalType": "uint256",
          "name": "tokenId",
          "type": "uint256"
        }
      ],
      "name": "Transfer",
      "type": "event"
    },
    {
      "inputs": [],
      "name": "DEFAULT_ADMIN_ROLE",
      "outputs": [
        {
          "internalType": "bytes32",
          "name": "",
          "type": "bytes32"
        }
      ],
      "stateMutability": "view",
      "type": "function",
      "constant": true
    },
    {
      "inputs": [],
      "name": "MINTER_ROLE",
      "outputs": [
        {
          "internalType": "bytes32",
          "name": "",
          "type": "bytes32"
        }
      ],
      "stateMutability": "view",
      "type": "function",
      "constant": true
    },
    {
      "inputs": [
        {
          "internalType": "address",
          "name": "to",
          "type": "address"
        },
        {
          "internalType": "uint256",
          "name": "tokenId",
          "type": "uint256"
        }
      ],
      "name": "approve",
      "outputs": [],
      "stateMutability": "nonpayable",
      "type": "function"
    },
    {
      "inputs": [
        {
          "internalType": "address",
          "name": "owner",
          "type": "address"
        }
      ],
      "name": "balanceOf",
      "outputs": [
        {
          "internalType": "uint256",
          "name": "",
          "type": "uint256"
        }
      ],
      "stateMutability": "view",
      "type": "function",
      "constant": true
    },
    {
      "inputs": [
        {
          "internalType": "uint256",
          "name": "tokenId",
          "type": "uint256"
        }
      ],
      "name": "getApproved",
      "outputs": [
        {
          "internalType": "address",
          "name": "",
          "type": "address"
        }
      ],
      "stateMutability": "view",
      "type": "function",
      "constant": true
    },
    {
      "inputs": [
        {
          "internalType": "bytes32",
          "name": "role",
          "type": "bytes32"
        }
      ],
      "name": "getRoleAdmin",
      "outputs": [
        {
          "internalType": "bytes32",
          "name": "",
          "type": "bytes32"
        }
      ],
      "stateMutability": "view",
      "type": "function",
      "constant": true
    },
    {
      "inputs": [
        {
          "internalType": "bytes32",
          "name": "role",
          "type": "bytes32"
        },
        {
          "internalType": "uint256",
          "name": "index",
          "type": "uint256"
        }
      ],
      "name": "getRoleMember",
      "outputs": [
        {
          "internalType": "address",
          "name": "",
          "type": "address"
        }
      ],
      "stateMutability": "view",
      "type": "function",
      "constant": true
    },
    {
      "inputs": [
        {
          "internalType": "bytes32",
          "name": "role",
          "type": "bytes32"
        }
      ],
      "name": "getRoleMemberCount",
      "outputs": [
        {
          "internalType": "uint256",
          "name": "",
          "type": "uint256"
        }
      ],
      "stateMutability": "view",
      "type": "function",
      "constant": true
    },
    {
      "inputs": [
        {
          "internalType": "bytes32",
          "name": "role",
          "type": "bytes32"
        },
        {
          "internalType": "address",
          "name": "account",
          "type": "address"
        }
      ],
      "name": "grantRole",
      "outputs": [],
      "stateMutability": "nonpayable",
      "type": "function"
    },
    {
      "inputs": [
        {
          "internalType": "bytes32",
          "name": "role",
          "type": "bytes32"
        },
        {
          "internalType": "address",
          "name": "account",
          "type": "address"
        }
      ],
      "name": "hasRole",
      "outputs": [
        {
          "internalType": "bool",
          "name": "",
          "type": "bool"
        }
      ],
      "stateMutability": "view",
      "type": "function",
      "constant": true
    },
    {
      "inputs": [
        {
          "internalType": "address",
          "name": "owner",
          "type": "address"
        },
        {
          "internalType": "address",
          "name": "operator",
          "type": "address"
        }
      ],
      "name": "isApprovedForAll",
      "outputs": [
        {
          "internalType": "bool",
          "name": "",
          "type": "bool"
        }
      ],
      "stateMutability": "view",
      "type": "function",
      "constant": true
    },
    {
      "inputs": [],
      "name": "maxSupply",
      "outputs": [
        {
          "internalType": "uint256",
          "name": "",
          "type": "uint256"
        }
      ],
      "stateMutability": "view",
      "type": "function",
      "constant": true
    },
    {
      "inputs": [
        {
          "internalType": "address",
          "name": "",
          "type": "address"
        }
      ],
      "name": "minted",
      "outputs": [
        {
          "internalType": "uint256",
          "name": "",
          "type": "uint256"
        }
      ],
      "stateMutability": "view",
      "type": "function",
      "constant": true
    },
    {
      "inputs": [],
      "name": "name",
      "outputs": [
        {
          "internalType": "string",
          "name": "",
          "type": "string"
        }
      ],
      "stateMutability": "view",
      "type": "function",
      "constant": true
    },
    {
      "inputs": [
        {
          "internalType": "uint256",
          "name": "tokenId",
          "type": "uint256"
        }
      ],
      "name": "ownerOf",
      "outputs": [
        {
          "internalType": "address",
          "name": "",
          "type": "address"
        }
      ],
      "stateMutability": "view",
      "type": "function",
      "constant": true
    },
    {
      "inputs": [
        {
          "internalType": "bytes32",
          "name": "role",
          "type": "bytes32"
        },
        {
          "internalType": "address",
          "name": "account",
          "type": "address"
        }
      ],
      "name": "renounceRole",
      "outputs": [],
      "stateMutability": "nonpayable",
      "type": "function"
    },
    {
      "inputs": [
        {
          "internalType": "bytes32",
          "name": "role",
          "type": "bytes32"
        },
        {
          "internalType": "address",
          "name": "account",
          "type": "address"
        }
      ],
      "name": "revokeRole",
      "outputs": [],
      "stateMutability": "nonpayable",
      "type": "function"
    },
    {
      "inputs": [
        {
          "internalType": "address",
          "name": "from",
          "type": "address"
        },
        {
          "internalType": "address",
          "name": "to",
          "type": "address"
        },
        {
          "internalType": "uint256",
          "name": "tokenId",
          "type": "uint256"
        }
      ],
      "name": "safeTransferFrom",
      "outputs": [],
      "stateMutability": "nonpayable",
      "type": "function"
    },
    {
      "inputs": [
        {
          "internalType": "address",
          "name": "from",
          "type": "address"
        },
        {
          "internalType": "address",
          "name": "to",
          "type": "address"
        },
        {
          "internalType": "uint256",
          "name": "tokenId",
          "type": "uint256"
        },
        {
          "internalType": "bytes",
          "name": "_data",
          "type": "bytes"
        }
      ],
      "name": "safeTransferFrom",
      "outputs": [],
      "stateMutability": "nonpayable",
      "type": "function"
    },
    {
      "inputs": [
        {
          "internalType": "address",
          "name": "operator",
          "type": "address"
        },
        {
          "internalType": "bool",
          "name": "approved",
          "type": "bool"
        }
      ],
      "name": "setApprovalForAll",
      "outputs": [],
      "stateMutability": "nonpayable",
      "type": "function"
    },
    {
      "inputs": [],
      "name": "symbol",
      "outputs": [
        {
          "internalType": "string",
          "name": "",
          "type": "string"
        }
      ],
      "stateMutability": "view",
      "type": "function",
      "constant": true
    },
    {
      "inputs": [
        {
          "internalType": "uint256",
          "name": "index",
          "type": "uint256"
        }
      ],
      "name": "tokenByIndex",
      "outputs": [
        {
          "internalType": "uint256",
          "name": "",
          "type": "uint256"
        }
      ],
      "stateMutability": "view",
      "type": "function",
      "constant": true
    },
    {
      "inputs": [
        {
          "internalType": "address",
          "name": "owner",
          "type": "address"
        },
        {
          "internalType": "uint256",
          "name": "index",
          "type": "uint256"
        }
      ],
      "name": "tokenOfOwnerByIndex",
      "outputs": [
        {
          "internalType": "uint256",
          "name": "",
          "type": "uint256"
        }
      ],
      "stateMutability": "view",
      "type": "function",
      "constant": true
    },
    {
      "inputs": [],
      "name": "totalSupply",
      "outputs": [
        {
          "internalType": "uint256",
          "name": "",
          "type": "uint256"
        }
      ],
      "stateMutability": "view",
      "type": "function",
      "constant": true
    },
    {
      "inputs": [
        {
          "internalType": "address",
          "name": "from",
          "type": "address"
        },
        {
          "internalType": "address",
          "name": "to",
          "type": "address"
        },
        {
          "internalType": "uint256",
          "name": "tokenId",
          "type": "uint256"
        }
      ],
      "name": "transferFrom",
      "outputs": [],
      "stateMutability": "nonpayable",
      "type": "function"
    },
    {
      "inputs": [
        {
          "internalType": "address",
          "name": "",
          "type": "address"
        }
      ],
      "name": "whitelist",
      "outputs": [
        {
          "internalType": "bool",
          "name": "",
          "type": "bool"
        }
      ],
      "stateMutability": "view",
      "type": "function",
      "constant": true
    },
    {
      "inputs": [],
      "name": "whitelistEndDate",
      "outputs": [
        {
          "internalType": "uint256",
          "name": "",
          "type": "uint256"
        }
      ],
      "stateMutability": "view",
      "type": "function",
      "constant": true
    },
    {
      "inputs": [
        {
          "internalType": "uint256",
          "name": "tokenId",
          "type": "uint256"
        }
      ],
      "name": "tokenURI",
      "outputs": [
        {
          "internalType": "string",
          "name": "",
          "type": "string"
        }
      ],
      "stateMutability": "view",
      "type": "function",
      "constant": true
    },
    {
      "inputs": [
        {
          "internalType": "address[]",
          "name": "recievers",
          "type": "address[]"
        }
      ],
      "name": "mintByAdmin",
      "outputs": [],
      "stateMutability": "nonpayable",
      "type": "function"
    },
    {
      "inputs": [],
      "name": "mint",
      "outputs": [],
      "stateMutability": "payable",
      "type": "function",
      "payable": true
    },
    {
      "inputs": [
        {
          "internalType": "uint256",
          "name": "_whitelistEndDate",
          "type": "uint256"
        }
      ],
      "name": "setwhitelistEndDate",
      "outputs": [],
      "stateMutability": "nonpayable",
      "type": "function"
    },
    {
      "inputs": [
        {
          "internalType": "uint256",
          "name": "_maxSupply",
          "type": "uint256"
        }
      ],
      "name": "setMaxSupply",
      "outputs": [],
      "stateMutability": "nonpayable",
      "type": "function"
    },
    {
      "inputs": [
        {
          "internalType": "address[]",
          "name": "_whiteListAddresses",
          "type": "address[]"
        }
      ],
      "name": "addToWhitelist",
      "outputs": [],
      "stateMutability": "nonpayable",
      "type": "function"
    },
    {
      "inputs": [
        {
          "internalType": "address",
          "name": "_address",
          "type": "address"
        }
      ],
      "name": "isInWhitelist",
      "outputs": [
        {
          "internalType": "bool",
          "name": "",
          "type": "bool"
        }
      ],
      "stateMutability": "view",
      "type": "function",
      "constant": true
    },
    {
      "inputs": [],
      "name": "getFundAddress",
      "outputs": [
        {
          "internalType": "address",
          "name": "",
          "type": "address"
        }
      ],
      "stateMutability": "view",
      "type": "function",
      "constant": true
    },
    {
      "inputs": [],
      "name": "getRemainingSupply",
      "outputs": [
        {
          "internalType": "uint256",
          "name": "",
          "type": "uint256"
        }
      ],
      "stateMutability": "view",
      "type": "function",
      "constant": true
    },
    {
      "inputs": [
        {
          "internalType": "address",
          "name": "_address",
          "type": "address"
        }
      ],
      "name": "getMintedCount",
      "outputs": [
        {
          "internalType": "uint256",
          "name": "",
          "type": "uint256"
        }
      ],
      "stateMutability": "view",
      "type": "function",
      "constant": true
    },
    {
      "inputs": [
        {
          "internalType": "bytes4",
          "name": "interfaceId",
          "type": "bytes4"
        }
      ],
      "name": "supportsInterface",
      "outputs": [
        {
          "internalType": "bool",
          "name": "",
          "type": "bool"
        }
      ],
      "stateMutability": "view",
      "type": "function",
      "constant": true
    }
  ],
  "bytecode": "0x60806040523480156200001157600080fd5b506040518060400160405280601481526020017f43727970746f204368617365727320526f626f740000000000000000000000008152506040518060400160405280600381526020017f434352000000000000000000000000000000000000000000000000000000000081525081600290805190602001906200009692919062000446565b508060039080519060200190620000af92919062000446565b5050506101f4600f8190555033601060006101000a81548173ffffffffffffffffffffffffffffffffffffffff021916908373ffffffffffffffffffffffffffffffffffffffff16021790555062015180426200010d9190620004f6565b600e819055506040518060600160405280603681526020016200571160369139600d90805190602001906200014492919062000446565b50620001696000801b6200015d620001b060201b60201c565b620001b860201b60201c565b620001aa7f9f2df0fed2c77648de5860a4cc508cd0818c85b8b8a1ab4ceeef8d981c8956a66200019e620001b060201b60201c565b620001b860201b60201c565b620005f1565b600033905090565b620001cf82826200020060201b62001bbb1760201c565b620001fb81600160008581526020019081526020016000206200021660201b62001bc91790919060201c565b505050565b6200021282826200024e60201b60201c565b5050565b600062000246836000018373ffffffffffffffffffffffffffffffffffffffff1660001b6200033f60201b60201c565b905092915050565b620002608282620003b960201b60201c565b6200033b57600160008084815260200190815260200160002060000160008373ffffffffffffffffffffffffffffffffffffffff1673ffffffffffffffffffffffffffffffffffffffff16815260200190815260200160002060006101000a81548160ff021916908315150217905550620002e0620001b060201b60201c565b73ffffffffffffffffffffffffffffffffffffffff168173ffffffffffffffffffffffffffffffffffffffff16837f2f8788117e7eff1d82e926ec794901d17c78024a50270940304540a733656f0d60405160405180910390a45b5050565b60006200035383836200042360201b60201c565b620003ae578260000182908060018154018082558091505060019003906000526020600020016000909190919091505582600001805490508360010160008481526020019081526020016000208190555060019050620003b3565b600090505b92915050565b600080600084815260200190815260200160002060000160008373ffffffffffffffffffffffffffffffffffffffff1673ffffffffffffffffffffffffffffffffffffffff16815260200190815260200160002060009054906101000a900460ff16905092915050565b600080836001016000848152602001908152602001600020541415905092915050565b82805462000454906200055d565b90600052602060002090601f016020900481019282620004785760008555620004c4565b82601f106200049357805160ff1916838001178555620004c4565b82800160010185558215620004c4579182015b82811115620004c3578251825591602001919060010190620004a6565b5b509050620004d39190620004d7565b5090565b5b80821115620004f2576000816000905550600101620004d8565b5090565b6000620005038262000553565b9150620005108362000553565b9250827fffffffffffffffffffffffffffffffffffffffffffffffffffffffffffffffff0382111562000548576200054762000593565b5b828201905092915050565b6000819050919050565b600060028204905060018216806200057657607f821691505b602082108114156200058d576200058c620005c2565b5b50919050565b7f4e487b7100000000000000000000000000000000000000000000000000000000600052601160045260246000fd5b7f4e487b7100000000000000000000000000000000000000000000000000000000600052602260045260246000fd5b61511080620006016000396000f3fe6080604052600436106102255760003560e01c80636f8b44b011610123578063a22cb465116100ab578063d547741f1161006f578063d547741f1461088c578063d5abeb01146108b5578063dfb25a7d146108e0578063e4b7fb731461090b578063e985e9c51461093657610225565b8063a22cb46514610795578063b88d4fde146107be578063c87b56dd146107e7578063ca15c87314610824578063d53913931461086157610225565b806391d14854116100f257806391d148541461068857806395d89b41146106c557806397d6696b146106f05780639b19251a1461072d578063a217fddf1461076a57610225565b80636f8b44b0146105bc57806370a08231146105e55780637f649783146106225780639010d07c1461064b57610225565b806323b872dd116101b157806336568abe1161017557806336568abe146104c757806342842e0e146104f05780634f6ccce7146105195780636352211e1461055657806363810b6c1461059357610225565b806323b872dd146103d0578063248a9ca3146103f9578063274144c6146104365780632f2ff15d146104615780632f745c591461048a57610225565b806309fd8212116101f857806309fd8212146102f857806311457910146103355780631249c58b1461035e57806318160ddd146103685780631e7269c51461039357610225565b806301ffc9a71461022a57806306fdde0314610267578063081812fc14610292578063095ea7b3146102cf575b600080fd5b34801561023657600080fd5b50610251600480360381019061024c9190613c9b565b610973565b60405161025e9190614248565b60405180910390f35b34801561027357600080fd5b5061027c610985565b604051610289919061427e565b60405180910390f35b34801561029e57600080fd5b506102b960048036038101906102b49190613ced565b610a17565b6040516102c691906141e1565b60405180910390f35b3480156102db57600080fd5b506102f660048036038101906102f19190613b38565b610a9c565b005b34801561030457600080fd5b5061031f600480360381019061031a91906139cd565b610bb4565b60405161032c9190614248565b60405180910390f35b34801561034157600080fd5b5061035c60048036038101906103579190613b74565b610c0a565b005b610366610d33565b005b34801561037457600080fd5b5061037d6110c5565b60405161038a91906145a0565b60405180910390f35b34801561039f57600080fd5b506103ba60048036038101906103b591906139cd565b6110d2565b6040516103c791906145a0565b60405180910390f35b3480156103dc57600080fd5b506103f760048036038101906103f29190613a32565b6110ea565b005b34801561040557600080fd5b50610420600480360381019061041b9190613bfa565b61114a565b60405161042d9190614263565b60405180910390f35b34801561044257600080fd5b5061044b611169565b60405161045891906141e1565b60405180910390f35b34801561046d57600080fd5b5061048860048036038101906104839190613c23565b611193565b005b34801561049657600080fd5b506104b160048036038101906104ac9190613b38565b6111c7565b6040516104be91906145a0565b60405180910390f35b3480156104d357600080fd5b506104ee60048036038101906104e99190613c23565b61126c565b005b3480156104fc57600080fd5b5061051760048036038101906105129190613a32565b6112a0565b005b34801561052557600080fd5b50610540600480360381019061053b9190613ced565b6112c0565b60405161054d91906145a0565b60405180910390f35b34801561056257600080fd5b5061057d60048036038101906105789190613ced565b611357565b60405161058a91906141e1565b60405180910390f35b34801561059f57600080fd5b506105ba60048036038101906105b59190613ced565b611409565b005b3480156105c857600080fd5b506105e360048036038101906105de9190613ced565b611466565b005b3480156105f157600080fd5b5061060c600480360381019061060791906139cd565b6114c3565b60405161061991906145a0565b60405180910390f35b34801561062e57600080fd5b5061064960048036038101906106449190613bb9565b61157b565b005b34801561065757600080fd5b50610672600480360381019061066d9190613c5f565b6116f3565b60405161067f91906141e1565b60405180910390f35b34801561069457600080fd5b506106af60048036038101906106aa9190613c23565b611722565b6040516106bc9190614248565b60405180910390f35b3480156106d157600080fd5b506106da61178c565b6040516106e7919061427e565b60405180910390f35b3480156106fc57600080fd5b50610717600480360381019061071291906139cd565b61181e565b60405161072491906145a0565b60405180910390f35b34801561073957600080fd5b50610754600480360381019061074f91906139cd565b611867565b6040516107619190614248565b60405180910390f35b34801561077657600080fd5b5061077f611887565b60405161078c9190614263565b60405180910390f35b3480156107a157600080fd5b506107bc60048036038101906107b79190613afc565b61188e565b005b3480156107ca57600080fd5b506107e560048036038101906107e09190613a81565b611a0f565b005b3480156107f357600080fd5b5061080e60048036038101906108099190613ced565b611a71565b60405161081b919061427e565b60405180910390f35b34801561083057600080fd5b5061084b60048036038101906108469190613bfa565b611a83565b60405161085891906145a0565b60405180910390f35b34801561086d57600080fd5b50610876611aa7565b6040516108839190614263565b60405180910390f35b34801561089857600080fd5b506108b360048036038101906108ae9190613c23565b611acb565b005b3480156108c157600080fd5b506108ca611aff565b6040516108d791906145a0565b60405180910390f35b3480156108ec57600080fd5b506108f5611b05565b60405161090291906145a0565b60405180910390f35b34801561091757600080fd5b50610920611b0b565b60405161092d91906145a0565b60405180910390f35b34801561094257600080fd5b5061095d600480360381019061095891906139f6565b611b27565b60405161096a9190614248565b60405180910390f35b600061097e82611bf9565b9050919050565b6060600280546109949061487f565b80601f01602080910402602001604051908101604052809291908181526020018280546109c09061487f565b8015610a0d5780601f106109e257610100808354040283529160200191610a0d565b820191906000526020600020905b8154815290600101906020018083116109f057829003601f168201915b5050505050905090565b6000610a2282611c73565b610a61576040517f08c379a0000000000000000000000000000000000000000000000000000000008152600401610a5890614460565b60405180910390fd5b6006600083815260200190815260200160002060009054906101000a900473ffffffffffffffffffffffffffffffffffffffff169050919050565b6000610aa782611357565b90508073ffffffffffffffffffffffffffffffffffffffff168373ffffffffffffffffffffffffffffffffffffffff161415610b18576040517f08c379a0000000000000000000000000000000000000000000000000000000008152600401610b0f906144c0565b60405180910390fd5b8073ffffffffffffffffffffffffffffffffffffffff16610b37611cdf565b73ffffffffffffffffffffffffffffffffffffffff161480610b665750610b6581610b60611cdf565b611b27565b5b610ba5576040517f08c379a0000000000000000000000000000000000000000000000000000000008152600401610b9c90614380565b60405180910390fd5b610baf8383611ce7565b505050565b6000601160008373ffffffffffffffffffffffffffffffffffffffff1673ffffffffffffffffffffffffffffffffffffffff16815260200190815260200160002060009054906101000a900460ff169050919050565b610c1e6000801b610c19611cdf565b611722565b610c5d576040517f08c379a0000000000000000000000000000000000000000000000000000000008152600401610c54906143e0565b60405180910390fd5b81819050610c696110c5565b610c739190614680565b600f541015610cb7576040517f08c379a0000000000000000000000000000000000000000000000000000000008152600401610cae90614500565b60405180910390fd5b60005b82829050811015610d2e57610d1b838383818110610d01577f4e487b7100000000000000000000000000000000000000000000000000000000600052603260045260246000fd5b9050602002016020810190610d1691906139cd565b611da0565b8080610d26906148e2565b915050610cba565b505050565b6002601260003373ffffffffffffffffffffffffffffffffffffffff1673ffffffffffffffffffffffffffffffffffffffff1681526020019081526020016000205410610db5576040517f08c379a0000000000000000000000000000000000000000000000000000000008152600401610dac90614560565b60405180910390fd5b610dbd6110c5565b600f541015610e01576040517f08c379a0000000000000000000000000000000000000000000000000000000008152600401610df890614500565b60405180910390fd5b601160003373ffffffffffffffffffffffffffffffffffffffff1673ffffffffffffffffffffffffffffffffffffffff16815260200190815260200160002060009054906101000a900460ff1615610fce57610e847f9f2df0fed2c77648de5860a4cc508cd0818c85b8b8a1ab4ceeef8d981c8956a6610e7f611cdf565b611722565b610ec3576040517f08c379a0000000000000000000000000000000000000000000000000000000008152600401610eba90614520565b60405180910390fd5b6000601260003373ffffffffffffffffffffffffffffffffffffffff1673ffffffffffffffffffffffffffffffffffffffff168152602001908152602001600020541415610f1957610f1433611da0565b610fc9565b668e1bc9bf0400003414610f62576040517f08c379a0000000000000000000000000000000000000000000000000000000008152600401610f5990614400565b60405180910390fd5b601060009054906101000a900473ffffffffffffffffffffffffffffffffffffffff1673ffffffffffffffffffffffffffffffffffffffff166108fc349081150290604051600060405180830381858888f1935050505015610fc857610fc733611da0565b5b5b6110c3565b600e54421015611013576040517f08c379a000000000000000000000000000000000000000000000000000000000815260040161100a90614420565b60405180910390fd5b668e1bc9bf040000341461105c576040517f08c379a000000000000000000000000000000000000000000000000000000000815260040161105390614400565b60405180910390fd5b601060009054906101000a900473ffffffffffffffffffffffffffffffffffffffff1673ffffffffffffffffffffffffffffffffffffffff166108fc349081150290604051600060405180830381858888f19350505050156110c2576110c133611da0565b5b5b565b6000600a80549050905090565b60126020528060005260406000206000915090505481565b6110fb6110f5611cdf565b82611e17565b61113a576040517f08c379a0000000000000000000000000000000000000000000000000000000008152600401611131906144e0565b60405180910390fd5b611145838383611ef5565b505050565b6000806000838152602001908152602001600020600101549050919050565b6000601060009054906101000a900473ffffffffffffffffffffffffffffffffffffffff16905090565b61119d8282612151565b6111c28160016000858152602001908152602001600020611bc990919063ffffffff16565b505050565b60006111d2836114c3565b8210611213576040517f08c379a000000000000000000000000000000000000000000000000000000000815260040161120a906142c0565b60405180910390fd5b600860008473ffffffffffffffffffffffffffffffffffffffff1673ffffffffffffffffffffffffffffffffffffffff168152602001908152602001600020600083815260200190815260200160002054905092915050565b611276828261217a565b61129b81600160008581526020019081526020016000206121fd90919063ffffffff16565b505050565b6112bb83838360405180602001604052806000815250611a0f565b505050565b60006112ca6110c5565b821061130b576040517f08c379a000000000000000000000000000000000000000000000000000000000815260040161130290614540565b60405180910390fd5b600a8281548110611345577f4e487b7100000000000000000000000000000000000000000000000000000000600052603260045260246000fd5b90600052602060002001549050919050565b6000806004600084815260200190815260200160002060009054906101000a900473ffffffffffffffffffffffffffffffffffffffff169050600073ffffffffffffffffffffffffffffffffffffffff168173ffffffffffffffffffffffffffffffffffffffff161415611400576040517f08c379a00000000000000000000000000000000000000000000000000000000081526004016113f7906143c0565b60405180910390fd5b80915050919050565b61141d6000801b611418611cdf565b611722565b61145c576040517f08c379a0000000000000000000000000000000000000000000000000000000008152600401611453906143e0565b60405180910390fd5b80600e8190555050565b61147a6000801b611475611cdf565b611722565b6114b9576040517f08c379a00000000000000000000000000000000000000000000000000000000081526004016114b0906143e0565b60405180910390fd5b80600f8190555050565b60008073ffffffffffffffffffffffffffffffffffffffff168273ffffffffffffffffffffffffffffffffffffffff161415611534576040517f08c379a000000000000000000000000000000000000000000000000000000000815260040161152b906143a0565b60405180910390fd5b600560008373ffffffffffffffffffffffffffffffffffffffff1673ffffffffffffffffffffffffffffffffffffffff168152602001908152602001600020549050919050565b61158f6000801b61158a611cdf565b611722565b6115ce576040517f08c379a00000000000000000000000000000000000000000000000000000000081526004016115c5906143e0565b60405180910390fd5b60005b81518110156116ef57600160116000848481518110611619577f4e487b7100000000000000000000000000000000000000000000000000000000600052603260045260246000fd5b602002602001015173ffffffffffffffffffffffffffffffffffffffff1673ffffffffffffffffffffffffffffffffffffffff16815260200190815260200160002060006101000a81548160ff0219169083151502179055506116dc7f9f2df0fed2c77648de5860a4cc508cd0818c85b8b8a1ab4ceeef8d981c8956a68383815181106116cf577f4e487b7100000000000000000000000000000000000000000000000000000000600052603260045260246000fd5b6020026020010151611193565b80806116e7906148e2565b9150506115d1565b5050565b600061171a826001600086815260200190815260200160002061222d90919063ffffffff16565b905092915050565b600080600084815260200190815260200160002060000160008373ffffffffffffffffffffffffffffffffffffffff1673ffffffffffffffffffffffffffffffffffffffff16815260200190815260200160002060009054906101000a900460ff16905092915050565b60606003805461179b9061487f565b80601f01602080910402602001604051908101604052809291908181526020018280546117c79061487f565b80156118145780601f106117e957610100808354040283529160200191611814565b820191906000526020600020905b8154815290600101906020018083116117f757829003601f168201915b5050505050905090565b6000601260008373ffffffffffffffffffffffffffffffffffffffff1673ffffffffffffffffffffffffffffffffffffffff168152602001908152602001600020549050919050565b60116020528060005260406000206000915054906101000a900460ff1681565b6000801b81565b611896611cdf565b73ffffffffffffffffffffffffffffffffffffffff168273ffffffffffffffffffffffffffffffffffffffff161415611904576040517f08c379a00000000000000000000000000000000000000000000000000000000081526004016118fb90614340565b60405180910390fd5b8060076000611911611cdf565b73ffffffffffffffffffffffffffffffffffffffff1673ffffffffffffffffffffffffffffffffffffffff16815260200190815260200160002060008473ffffffffffffffffffffffffffffffffffffffff1673ffffffffffffffffffffffffffffffffffffffff16815260200190815260200160002060006101000a81548160ff0219169083151502179055508173ffffffffffffffffffffffffffffffffffffffff166119be611cdf565b73ffffffffffffffffffffffffffffffffffffffff167f17307eab39ab6107e8899845ad3d59bd9653f200f220920489ca2b5937696c3183604051611a039190614248565b60405180910390a35050565b611a20611a1a611cdf565b83611e17565b611a5f576040517f08c379a0000000000000000000000000000000000000000000000000000000008152600401611a56906144e0565b60405180910390fd5b611a6b84848484612247565b50505050565b6060611a7c826122a3565b9050919050565b6000611aa06001600084815260200190815260200160002061234a565b9050919050565b7f9f2df0fed2c77648de5860a4cc508cd0818c85b8b8a1ab4ceeef8d981c8956a681565b611ad5828261235f565b611afa81600160008581526020019081526020016000206121fd90919063ffffffff16565b505050565b600f5481565b600e5481565b6000611b156110c5565b600f54611b229190614761565b905090565b6000600760008473ffffffffffffffffffffffffffffffffffffffff1673ffffffffffffffffffffffffffffffffffffffff16815260200190815260200160002060008373ffffffffffffffffffffffffffffffffffffffff1673ffffffffffffffffffffffffffffffffffffffff16815260200190815260200160002060009054906101000a900460ff16905092915050565b611bc58282612388565b5050565b6000611bf1836000018373ffffffffffffffffffffffffffffffffffffffff1660001b612468565b905092915050565b60007f780e9d63000000000000000000000000000000000000000000000000000000007bffffffffffffffffffffffffffffffffffffffffffffffffffffffff1916827bffffffffffffffffffffffffffffffffffffffffffffffffffffffff19161480611c6c5750611c6b826124d8565b5b9050919050565b60008073ffffffffffffffffffffffffffffffffffffffff166004600084815260200190815260200160002060009054906101000a900473ffffffffffffffffffffffffffffffffffffffff1673ffffffffffffffffffffffffffffffffffffffff1614159050919050565b600033905090565b816006600083815260200190815260200160002060006101000a81548173ffffffffffffffffffffffffffffffffffffffff021916908373ffffffffffffffffffffffffffffffffffffffff160217905550808273ffffffffffffffffffffffffffffffffffffffff16611d5a83611357565b73ffffffffffffffffffffffffffffffffffffffff167f8c5be1e5ebec7d5bd14f71427d1e84f3dd0314c0f7b2291e5b200ac8c7c3b92560405160405180910390a45050565b611db381611dae600c6125ba565b6125c8565b611dbd600c612796565b6001601260008373ffffffffffffffffffffffffffffffffffffffff1673ffffffffffffffffffffffffffffffffffffffff1681526020019081526020016000206000828254611e0d9190614680565b9250508190555050565b6000611e2282611c73565b611e61576040517f08c379a0000000000000000000000000000000000000000000000000000000008152600401611e5890614360565b60405180910390fd5b6000611e6c83611357565b90508073ffffffffffffffffffffffffffffffffffffffff168473ffffffffffffffffffffffffffffffffffffffff161480611edb57508373ffffffffffffffffffffffffffffffffffffffff16611ec384610a17565b73ffffffffffffffffffffffffffffffffffffffff16145b80611eec5750611eeb8185611b27565b5b91505092915050565b8273ffffffffffffffffffffffffffffffffffffffff16611f1582611357565b73ffffffffffffffffffffffffffffffffffffffff1614611f6b576040517f08c379a0000000000000000000000000000000000000000000000000000000008152600401611f6290614480565b60405180910390fd5b600073ffffffffffffffffffffffffffffffffffffffff168273ffffffffffffffffffffffffffffffffffffffff161415611fdb576040517f08c379a0000000000000000000000000000000000000000000000000000000008152600401611fd290614320565b60405180910390fd5b611fe68383836127ac565b611ff1600082611ce7565b6001600560008573ffffffffffffffffffffffffffffffffffffffff1673ffffffffffffffffffffffffffffffffffffffff16815260200190815260200160002060008282546120419190614761565b925050819055506001600560008473ffffffffffffffffffffffffffffffffffffffff1673ffffffffffffffffffffffffffffffffffffffff16815260200190815260200160002060008282546120989190614680565b92505081905550816004600083815260200190815260200160002060006101000a81548173ffffffffffffffffffffffffffffffffffffffff021916908373ffffffffffffffffffffffffffffffffffffffff160217905550808273ffffffffffffffffffffffffffffffffffffffff168473ffffffffffffffffffffffffffffffffffffffff167fddf252ad1be2c89b69c2b068fc378daa952ba7f163c4a11628f55a4df523b3ef60405160405180910390a4505050565b61215a8261114a565b61216b81612166611cdf565b6128c0565b6121758383612388565b505050565b612182611cdf565b73ffffffffffffffffffffffffffffffffffffffff168173ffffffffffffffffffffffffffffffffffffffff16146121ef576040517f08c379a00000000000000000000000000000000000000000000000000000000081526004016121e690614580565b60405180910390fd5b6121f9828261295d565b5050565b6000612225836000018373ffffffffffffffffffffffffffffffffffffffff1660001b612a3e565b905092915050565b600061223c8360000183612bc4565b60001c905092915050565b612252848484611ef5565b61225e84848484612c15565b61229d576040517f08c379a0000000000000000000000000000000000000000000000000000000008152600401612294906142e0565b60405180910390fd5b50505050565b60606122ae82611c73565b6122ed576040517f08c379a00000000000000000000000000000000000000000000000000000000081526004016122e4906144a0565b60405180910390fd5b60006122f7612dac565b905060008151116123175760405180602001604052806000815250612342565b8061232184612e3e565b604051602001612332929190614183565b6040516020818303038152906040525b915050919050565b600061235882600001612feb565b9050919050565b6123688261114a565b61237981612374611cdf565b6128c0565b612383838361295d565b505050565b6123928282611722565b61246457600160008084815260200190815260200160002060000160008373ffffffffffffffffffffffffffffffffffffffff1673ffffffffffffffffffffffffffffffffffffffff16815260200190815260200160002060006101000a81548160ff021916908315150217905550612409611cdf565b73ffffffffffffffffffffffffffffffffffffffff168173ffffffffffffffffffffffffffffffffffffffff16837f2f8788117e7eff1d82e926ec794901d17c78024a50270940304540a733656f0d60405160405180910390a45b5050565b60006124748383612ffc565b6124cd5782600001829080600181540180825580915050600190039060005260206000200160009091909190915055826000018054905083600101600084815260200190815260200160002081905550600190506124d2565b600090505b92915050565b60007f80ac58cd000000000000000000000000000000000000000000000000000000007bffffffffffffffffffffffffffffffffffffffffffffffffffffffff1916827bffffffffffffffffffffffffffffffffffffffffffffffffffffffff191614806125a357507f5b5e139f000000000000000000000000000000000000000000000000000000007bffffffffffffffffffffffffffffffffffffffffffffffffffffffff1916827bffffffffffffffffffffffffffffffffffffffffffffffffffffffff1916145b806125b357506125b28261301f565b5b9050919050565b600081600001549050919050565b600073ffffffffffffffffffffffffffffffffffffffff168273ffffffffffffffffffffffffffffffffffffffff161415612638576040517f08c379a000000000000000000000000000000000000000000000000000000000815260040161262f90614440565b60405180910390fd5b61264181611c73565b15612681576040517f08c379a000000000000000000000000000000000000000000000000000000000815260040161267890614300565b60405180910390fd5b61268d600083836127ac565b6001600560008473ffffffffffffffffffffffffffffffffffffffff1673ffffffffffffffffffffffffffffffffffffffff16815260200190815260200160002060008282546126dd9190614680565b92505081905550816004600083815260200190815260200160002060006101000a81548173ffffffffffffffffffffffffffffffffffffffff021916908373ffffffffffffffffffffffffffffffffffffffff160217905550808273ffffffffffffffffffffffffffffffffffffffff16600073ffffffffffffffffffffffffffffffffffffffff167fddf252ad1be2c89b69c2b068fc378daa952ba7f163c4a11628f55a4df523b3ef60405160405180910390a45050565b6001816000016000828254019250508190555050565b6127b7838383613099565b600073ffffffffffffffffffffffffffffffffffffffff168373ffffffffffffffffffffffffffffffffffffffff1614156127fa576127f58161309e565b612839565b8173ffffffffffffffffffffffffffffffffffffffff168373ffffffffffffffffffffffffffffffffffffffff16146128385761283783826130e7565b5b5b600073ffffffffffffffffffffffffffffffffffffffff168273ffffffffffffffffffffffffffffffffffffffff16141561287c5761287781613254565b6128bb565b8273ffffffffffffffffffffffffffffffffffffffff168273ffffffffffffffffffffffffffffffffffffffff16146128ba576128b98282613397565b5b5b505050565b6128ca8282611722565b612959576128ef8173ffffffffffffffffffffffffffffffffffffffff166014613416565b6128fd8360001c6020613416565b60405160200161290e9291906141a7565b6040516020818303038152906040526040517f08c379a0000000000000000000000000000000000000000000000000000000008152600401612950919061427e565b60405180910390fd5b5050565b6129678282611722565b15612a3a57600080600084815260200190815260200160002060000160008373ffffffffffffffffffffffffffffffffffffffff1673ffffffffffffffffffffffffffffffffffffffff16815260200190815260200160002060006101000a81548160ff0219169083151502179055506129df611cdf565b73ffffffffffffffffffffffffffffffffffffffff168173ffffffffffffffffffffffffffffffffffffffff16837ff6391f5c32d9c69d2a47ea670b442974b53935d1edc7fd64eb21e047a839171b60405160405180910390a45b5050565b60008083600101600084815260200190815260200160002054905060008114612bb8576000600182612a709190614761565b9050600060018660000180549050612a889190614761565b9050818114612b43576000866000018281548110612acf577f4e487b7100000000000000000000000000000000000000000000000000000000600052603260045260246000fd5b9060005260206000200154905080876000018481548110612b19577f4e487b7100000000000000000000000000000000000000000000000000000000600052603260045260246000fd5b90600052602060002001819055508387600101600083815260200190815260200160002081905550505b85600001805480612b7d577f4e487b7100000000000000000000000000000000000000000000000000000000600052603160045260246000fd5b600190038181906000526020600020016000905590558560010160008681526020019081526020016000206000905560019350505050612bbe565b60009150505b92915050565b6000826000018281548110612c02577f4e487b7100000000000000000000000000000000000000000000000000000000600052603260045260246000fd5b9060005260206000200154905092915050565b6000612c368473ffffffffffffffffffffffffffffffffffffffff16613710565b15612d9f578373ffffffffffffffffffffffffffffffffffffffff1663150b7a02612c5f611cdf565b8786866040518563ffffffff1660e01b8152600401612c8194939291906141fc565b602060405180830381600087803b158015612c9b57600080fd5b505af1925050508015612ccc57506040513d601f19601f82011682018060405250810190612cc99190613cc4565b60015b612d4f573d8060008114612cfc576040519150601f19603f3d011682016040523d82523d6000602084013e612d01565b606091505b50600081511415612d47576040517f08c379a0000000000000000000000000000000000000000000000000000000008152600401612d3e906142e0565b60405180910390fd5b805181602001fd5b63150b7a0260e01b7bffffffffffffffffffffffffffffffffffffffffffffffffffffffff1916817bffffffffffffffffffffffffffffffffffffffffffffffffffffffff191614915050612da4565b600190505b949350505050565b6060600d8054612dbb9061487f565b80601f0160208091040260200160405190810160405280929190818152602001828054612de79061487f565b8015612e345780601f10612e0957610100808354040283529160200191612e34565b820191906000526020600020905b815481529060010190602001808311612e1757829003601f168201915b5050505050905090565b60606000821415612e86576040518060400160405280600181526020017f30000000000000000000000000000000000000000000000000000000000000008152509050612fe6565b600082905060005b60008214612eb8578080612ea1906148e2565b915050600a82612eb191906146d6565b9150612e8e565b60008167ffffffffffffffff811115612efa577f4e487b7100000000000000000000000000000000000000000000000000000000600052604160045260246000fd5b6040519080825280601f01601f191660200182016040528015612f2c5781602001600182028036833780820191505090505b5090505b60008514612fdf57600182612f459190614761565b9150600a85612f54919061492b565b6030612f609190614680565b60f81b818381518110612f9c577f4e487b7100000000000000000000000000000000000000000000000000000000600052603260045260246000fd5b60200101907effffffffffffffffffffffffffffffffffffffffffffffffffffffffffffff1916908160001a905350600a85612fd891906146d6565b9450612f30565b8093505050505b919050565b600081600001805490509050919050565b600080836001016000848152602001908152602001600020541415905092915050565b60007f5a05180f000000000000000000000000000000000000000000000000000000007bffffffffffffffffffffffffffffffffffffffffffffffffffffffff1916827bffffffffffffffffffffffffffffffffffffffffffffffffffffffff19161480613092575061309182613723565b5b9050919050565b505050565b600a80549050600b600083815260200190815260200160002081905550600a81908060018154018082558091505060019003906000526020600020016000909190919091505550565b600060016130f4846114c3565b6130fe9190614761565b90506000600960008481526020019081526020016000205490508181146131e3576000600860008673ffffffffffffffffffffffffffffffffffffffff1673ffffffffffffffffffffffffffffffffffffffff168152602001908152602001600020600084815260200190815260200160002054905080600860008773ffffffffffffffffffffffffffffffffffffffff1673ffffffffffffffffffffffffffffffffffffffff168152602001908152602001600020600084815260200190815260200160002081905550816009600083815260200190815260200160002081905550505b6009600084815260200190815260200160002060009055600860008573ffffffffffffffffffffffffffffffffffffffff1673ffffffffffffffffffffffffffffffffffffffff16815260200190815260200160002060008381526020019081526020016000206000905550505050565b60006001600a805490506132689190614761565b90506000600b60008481526020019081526020016000205490506000600a83815481106132be577f4e487b7100000000000000000000000000000000000000000000000000000000600052603260045260246000fd5b9060005260206000200154905080600a8381548110613306577f4e487b7100000000000000000000000000000000000000000000000000000000600052603260045260246000fd5b906000526020600020018190555081600b600083815260200190815260200160002081905550600b600085815260200190815260200160002060009055600a80548061337b577f4e487b7100000000000000000000000000000000000000000000000000000000600052603160045260246000fd5b6001900381819060005260206000200160009055905550505050565b60006133a2836114c3565b905081600860008573ffffffffffffffffffffffffffffffffffffffff1673ffffffffffffffffffffffffffffffffffffffff168152602001908152602001600020600083815260200190815260200160002081905550806009600084815260200190815260200160002081905550505050565b6060600060028360026134299190614707565b6134339190614680565b67ffffffffffffffff811115613472577f4e487b7100000000000000000000000000000000000000000000000000000000600052604160045260246000fd5b6040519080825280601f01601f1916602001820160405280156134a45781602001600182028036833780820191505090505b5090507f300000000000000000000000000000000000000000000000000000000000000081600081518110613502577f4e487b7100000000000000000000000000000000000000000000000000000000600052603260045260246000fd5b60200101907effffffffffffffffffffffffffffffffffffffffffffffffffffffffffffff1916908160001a9053507f78000000000000000000000000000000000000000000000000000000000000008160018151811061358c577f4e487b7100000000000000000000000000000000000000000000000000000000600052603260045260246000fd5b60200101907effffffffffffffffffffffffffffffffffffffffffffffffffffffffffffff1916908160001a905350600060018460026135cc9190614707565b6135d69190614680565b90505b60018111156136c2577f3031323334353637383961626364656600000000000000000000000000000000600f86166010811061363e577f4e487b7100000000000000000000000000000000000000000000000000000000600052603260045260246000fd5b1a60f81b82828151811061367b577f4e487b7100000000000000000000000000000000000000000000000000000000600052603260045260246000fd5b60200101907effffffffffffffffffffffffffffffffffffffffffffffffffffffffffffff1916908160001a905350600485901c9450806136bb90614855565b90506135d9565b5060008414613706576040517f08c379a00000000000000000000000000000000000000000000000000000000081526004016136fd906142a0565b60405180910390fd5b8091505092915050565b600080823b905060008111915050919050565b60007f7965db0b000000000000000000000000000000000000000000000000000000007bffffffffffffffffffffffffffffffffffffffffffffffffffffffff1916827bffffffffffffffffffffffffffffffffffffffffffffffffffffffff1916148061379657506137958261379d565b5b9050919050565b60007f01ffc9a7000000000000000000000000000000000000000000000000000000007bffffffffffffffffffffffffffffffffffffffffffffffffffffffff1916827bffffffffffffffffffffffffffffffffffffffffffffffffffffffff1916149050919050565b600061381a613815846145e0565b6145bb565b9050808382526020820190508285602086028201111561383957600080fd5b60005b85811015613869578161384f88826138b1565b84526020840193506020830192505060018101905061383c565b5050509392505050565b60006138866138818461460c565b6145bb565b90508281526020810184848401111561389e57600080fd5b6138a9848285614813565b509392505050565b6000813590506138c081615067565b92915050565b60008083601f8401126138d857600080fd5b8235905067ffffffffffffffff8111156138f157600080fd5b60208301915083602082028301111561390957600080fd5b9250929050565b600082601f83011261392157600080fd5b8135613931848260208601613807565b91505092915050565b6000813590506139498161507e565b92915050565b60008135905061395e81615095565b92915050565b600081359050613973816150ac565b92915050565b600081519050613988816150ac565b92915050565b600082601f83011261399f57600080fd5b81356139af848260208601613873565b91505092915050565b6000813590506139c7816150c3565b92915050565b6000602082840312156139df57600080fd5b60006139ed848285016138b1565b91505092915050565b60008060408385031215613a0957600080fd5b6000613a17858286016138b1565b9250506020613a28858286016138b1565b9150509250929050565b600080600060608486031215613a4757600080fd5b6000613a55868287016138b1565b9350506020613a66868287016138b1565b9250506040613a77868287016139b8565b9150509250925092565b60008060008060808587031215613a9757600080fd5b6000613aa5878288016138b1565b9450506020613ab6878288016138b1565b9350506040613ac7878288016139b8565b925050606085013567ffffffffffffffff811115613ae457600080fd5b613af08782880161398e565b91505092959194509250565b60008060408385031215613b0f57600080fd5b6000613b1d858286016138b1565b9250506020613b2e8582860161393a565b9150509250929050565b60008060408385031215613b4b57600080fd5b6000613b59858286016138b1565b9250506020613b6a858286016139b8565b9150509250929050565b60008060208385031215613b8757600080fd5b600083013567ffffffffffffffff811115613ba157600080fd5b613bad858286016138c6565b92509250509250929050565b600060208284031215613bcb57600080fd5b600082013567ffffffffffffffff811115613be557600080fd5b613bf184828501613910565b91505092915050565b600060208284031215613c0c57600080fd5b6000613c1a8482850161394f565b91505092915050565b60008060408385031215613c3657600080fd5b6000613c448582860161394f565b9250506020613c55858286016138b1565b9150509250929050565b60008060408385031215613c7257600080fd5b6000613c808582860161394f565b9250506020613c91858286016139b8565b9150509250929050565b600060208284031215613cad57600080fd5b6000613cbb84828501613964565b91505092915050565b600060208284031215613cd657600080fd5b6000613ce484828501613979565b91505092915050565b600060208284031215613cff57600080fd5b6000613d0d848285016139b8565b91505092915050565b613d1f81614795565b82525050565b613d2e816147a7565b82525050565b613d3d816147b3565b82525050565b6000613d4e8261463d565b613d588185614653565b9350613d68818560208601614822565b613d7181614a18565b840191505092915050565b6000613d8782614648565b613d918185614664565b9350613da1818560208601614822565b613daa81614a18565b840191505092915050565b6000613dc082614648565b613dca8185614675565b9350613dda818560208601614822565b80840191505092915050565b6000613df3602083614664565b9150613dfe82614a29565b602082019050919050565b6000613e16602b83614664565b9150613e2182614a52565b604082019050919050565b6000613e39603283614664565b9150613e4482614aa1565b604082019050919050565b6000613e5c601c83614664565b9150613e6782614af0565b602082019050919050565b6000613e7f602483614664565b9150613e8a82614b19565b604082019050919050565b6000613ea2601983614664565b9150613ead82614b68565b602082019050919050565b6000613ec5602c83614664565b9150613ed082614b91565b604082019050919050565b6000613ee8603883614664565b9150613ef382614be0565b604082019050919050565b6000613f0b602a83614664565b9150613f1682614c2f565b604082019050919050565b6000613f2e602983614664565b9150613f3982614c7e565b604082019050919050565b6000613f51601c83614664565b9150613f5c82614ccd565b602082019050919050565b6000613f74601783614664565b9150613f7f82614cf6565b602082019050919050565b6000613f97601e83614664565b9150613fa282614d1f565b602082019050919050565b6000613fba602083614664565b9150613fc582614d48565b602082019050919050565b6000613fdd602c83614664565b9150613fe882614d71565b604082019050919050565b6000614000602983614664565b915061400b82614dc0565b604082019050919050565b6000614023602f83614664565b915061402e82614e0f565b604082019050919050565b6000614046602183614664565b915061405182614e5e565b604082019050919050565b6000614069603183614664565b915061407482614ead565b604082019050919050565b600061408c601283614664565b915061409782614efc565b602082019050919050565b60006140af601d83614664565b91506140ba82614f25565b602082019050919050565b60006140d2602c83614664565b91506140dd82614f4e565b604082019050919050565b60006140f5601783614675565b915061410082614f9d565b601782019050919050565b6000614118601583614664565b915061412382614fc6565b602082019050919050565b600061413b601183614675565b915061414682614fef565b601182019050919050565b600061415e602f83614664565b915061416982615018565b604082019050919050565b61417d81614809565b82525050565b600061418f8285613db5565b915061419b8284613db5565b91508190509392505050565b60006141b2826140e8565b91506141be8285613db5565b91506141c98261412e565b91506141d58284613db5565b91508190509392505050565b60006020820190506141f66000830184613d16565b92915050565b60006080820190506142116000830187613d16565b61421e6020830186613d16565b61422b6040830185614174565b818103606083015261423d8184613d43565b905095945050505050565b600060208201905061425d6000830184613d25565b92915050565b60006020820190506142786000830184613d34565b92915050565b600060208201905081810360008301526142988184613d7c565b905092915050565b600060208201905081810360008301526142b981613de6565b9050919050565b600060208201905081810360008301526142d981613e09565b9050919050565b600060208201905081810360008301526142f981613e2c565b9050919050565b6000602082019050818103600083015261431981613e4f565b9050919050565b6000602082019050818103600083015261433981613e72565b9050919050565b6000602082019050818103600083015261435981613e95565b9050919050565b6000602082019050818103600083015261437981613eb8565b9050919050565b6000602082019050818103600083015261439981613edb565b9050919050565b600060208201905081810360008301526143b981613efe565b9050919050565b600060208201905081810360008301526143d981613f21565b9050919050565b600060208201905081810360008301526143f981613f44565b9050919050565b6000602082019050818103600083015261441981613f67565b9050919050565b6000602082019050818103600083015261443981613f8a565b9050919050565b6000602082019050818103600083015261445981613fad565b9050919050565b6000602082019050818103600083015261447981613fd0565b9050919050565b6000602082019050818103600083015261449981613ff3565b9050919050565b600060208201905081810360008301526144b981614016565b9050919050565b600060208201905081810360008301526144d981614039565b9050919050565b600060208201905081810360008301526144f98161405c565b9050919050565b600060208201905081810360008301526145198161407f565b9050919050565b60006020820190508181036000830152614539816140a2565b9050919050565b60006020820190508181036000830152614559816140c5565b9050919050565b600060208201905081810360008301526145798161410b565b9050919050565b6000602082019050818103600083015261459981614151565b9050919050565b60006020820190506145b56000830184614174565b92915050565b60006145c56145d6565b90506145d182826148b1565b919050565b6000604051905090565b600067ffffffffffffffff8211156145fb576145fa6149e9565b5b602082029050602081019050919050565b600067ffffffffffffffff821115614627576146266149e9565b5b61463082614a18565b9050602081019050919050565b600081519050919050565b600081519050919050565b600082825260208201905092915050565b600082825260208201905092915050565b600081905092915050565b600061468b82614809565b915061469683614809565b9250827fffffffffffffffffffffffffffffffffffffffffffffffffffffffffffffffff038211156146cb576146ca61495c565b5b828201905092915050565b60006146e182614809565b91506146ec83614809565b9250826146fc576146fb61498b565b5b828204905092915050565b600061471282614809565b915061471d83614809565b9250817fffffffffffffffffffffffffffffffffffffffffffffffffffffffffffffffff04831182151516156147565761475561495c565b5b828202905092915050565b600061476c82614809565b915061477783614809565b92508282101561478a5761478961495c565b5b828203905092915050565b60006147a0826147e9565b9050919050565b60008115159050919050565b6000819050919050565b60007fffffffff0000000000000000000000000000000000000000000000000000000082169050919050565b600073ffffffffffffffffffffffffffffffffffffffff82169050919050565b6000819050919050565b82818337600083830152505050565b60005b83811015614840578082015181840152602081019050614825565b8381111561484f576000848401525b50505050565b600061486082614809565b915060008214156148745761487361495c565b5b600182039050919050565b6000600282049050600182168061489757607f821691505b602082108114156148ab576148aa6149ba565b5b50919050565b6148ba82614a18565b810181811067ffffffffffffffff821117156148d9576148d86149e9565b5b80604052505050565b60006148ed82614809565b91507fffffffffffffffffffffffffffffffffffffffffffffffffffffffffffffffff8214156149205761491f61495c565b5b600182019050919050565b600061493682614809565b915061494183614809565b9250826149515761495061498b565b5b828206905092915050565b7f4e487b7100000000000000000000000000000000000000000000000000000000600052601160045260246000fd5b7f4e487b7100000000000000000000000000000000000000000000000000000000600052601260045260246000fd5b7f4e487b7100000000000000000000000000000000000000000000000000000000600052602260045260246000fd5b7f4e487b7100000000000000000000000000000000000000000000000000000000600052604160045260246000fd5b6000601f19601f8301169050919050565b7f537472696e67733a20686578206c656e67746820696e73756666696369656e74600082015250565b7f455243373231456e756d657261626c653a206f776e657220696e646578206f7560008201527f74206f6620626f756e6473000000000000000000000000000000000000000000602082015250565b7f4552433732313a207472616e7366657220746f206e6f6e20455243373231526560008201527f63656976657220696d706c656d656e7465720000000000000000000000000000602082015250565b7f4552433732313a20746f6b656e20616c7265616479206d696e74656400000000600082015250565b7f4552433732313a207472616e7366657220746f20746865207a65726f2061646460008201527f7265737300000000000000000000000000000000000000000000000000000000602082015250565b7f4552433732313a20617070726f766520746f2063616c6c657200000000000000600082015250565b7f4552433732313a206f70657261746f7220717565727920666f72206e6f6e657860008201527f697374656e7420746f6b656e0000000000000000000000000000000000000000602082015250565b7f4552433732313a20617070726f76652063616c6c6572206973206e6f74206f7760008201527f6e6572206e6f7220617070726f76656420666f7220616c6c0000000000000000602082015250565b7f4552433732313a2062616c616e636520717565727920666f7220746865207a6560008201527f726f206164647265737300000000000000000000000000000000000000000000602082015250565b7f4552433732313a206f776e657220717565727920666f72206e6f6e657869737460008201527f656e7420746f6b656e0000000000000000000000000000000000000000000000602082015250565b7f4f6e6c792061646d696e2063616e2063616c6c2066756e6374696f6e00000000600082015250565b7f4e65656420746f2073656e6420302e3034206574686572000000000000000000600082015250565b7f6f6e6c7920696e2077686974656c6973742063616e206d696e74206e6f770000600082015250565b7f4552433732313a206d696e7420746f20746865207a65726f2061646472657373600082015250565b7f4552433732313a20617070726f76656420717565727920666f72206e6f6e657860008201527f697374656e7420746f6b656e0000000000000000000000000000000000000000602082015250565b7f4552433732313a207472616e73666572206f6620746f6b656e2074686174206960008201527f73206e6f74206f776e0000000000000000000000000000000000000000000000602082015250565b7f4552433732314d657461646174613a2055524920717565727920666f72206e6f60008201527f6e6578697374656e7420746f6b656e0000000000000000000000000000000000602082015250565b7f4552433732313a20617070726f76616c20746f2063757272656e74206f776e6560008201527f7200000000000000000000000000000000000000000000000000000000000000602082015250565b7f4552433732313a207472616e736665722063616c6c6572206973206e6f74206f60008201527f776e6572206e6f7220617070726f766564000000000000000000000000000000602082015250565b7f4d617820737570706c7920726561636865640000000000000000000000000000600082015250565b7f6d7573742068617665206d696e74657220726f6c6520746f206d696e74000000600082015250565b7f455243373231456e756d657261626c653a20676c6f62616c20696e646578206f60008201527f7574206f6620626f756e64730000000000000000000000000000000000000000602082015250565b7f416363657373436f6e74726f6c3a206163636f756e7420000000000000000000600082015250565b7f4d6178206d696e742032207065722073656e6465720000000000000000000000600082015250565b7f206973206d697373696e6720726f6c6520000000000000000000000000000000600082015250565b7f416363657373436f6e74726f6c3a2063616e206f6e6c792072656e6f756e636560008201527f20726f6c657320666f722073656c660000000000000000000000000000000000602082015250565b61507081614795565b811461507b57600080fd5b50565b615087816147a7565b811461509257600080fd5b50565b61509e816147b3565b81146150a957600080fd5b50565b6150b5816147bd565b81146150c057600080fd5b50565b6150cc81614809565b81146150d757600080fd5b5056fea26469706673582212200c5fbc55a6af3192921c0b0d99c9e51f41b8fe74776aef06d0c5f7a0c917c76b64736f6c63430008030033697066733a2f2f516d64476d524e347255356e74745765316f7a767a4a3474785561317958576e3839516557757a756f54776b54422f",
  "immutableReferences": {},
  "source": "// SPDX-License-Identifier: MIT\n\npragma solidity ^0.8.3;\n\nimport \"@openzeppelin/contracts/token/ERC721/extensions/ERC721Enumerable.sol\";\nimport \"@openzeppelin/contracts/token/ERC721/ERC721.sol\";\nimport \"@openzeppelin/contracts/access/AccessControlEnumerable.sol\";\nimport \"@openzeppelin/contracts/utils/Counters.sol\";\n\ncontract CCR is AccessControlEnumerable, ERC721Enumerable {\n\n    using Counters for Counters.Counter;\n    Counters.Counter private _tokenIdTracker;\n\n    bytes32 public constant MINTER_ROLE = keccak256(\"MINTER_ROLE\");\n    string private _baseTokenURI;\n    uint256 public whitelistEndDate;\n    uint256 public maxSupply;\n    address payable private fundAddress;\n    mapping (address => bool) public whitelist;\n    mapping (address => uint) public minted;\n\n    constructor() ERC721(\"Crypto Chasers Robot\", \"CCR\"){\n      maxSupply = 500;\n      fundAddress = payable(msg.sender);\n      whitelistEndDate = block.timestamp + 1 days;\n      _baseTokenURI = \"ipfs://QmdGmRN4rU5nttWe1ozvzJ4txUa1yXWn89QeWuzuoTwkTB/\";\n      _setupRole(DEFAULT_ADMIN_ROLE, _msgSender());\n      _setupRole(MINTER_ROLE, _msgSender());\n    }\n\n    // modifier admin has admin role can call this function\n    modifier onlyAdmin {\n      require(hasRole(DEFAULT_ADMIN_ROLE, _msgSender()), \"Only admin can call function\");\n      _;\n    }\n\n    // get token URL\n    function tokenURI(uint256 tokenId) public view virtual override returns (string memory) {\n       return string(super.tokenURI(tokenId));\n    }\n\n    function _baseURI() internal view virtual override returns (string memory) {\n      return _baseTokenURI;\n    }\n\n    function _mintProxy(address to) internal {\n      _mint(to, _tokenIdTracker.current());\n      _tokenIdTracker.increment();\n      minted[to] += 1;\n    }\n\n    // admin can direct mint NFT to any address\n    function mintByAdmin(address[] calldata recievers) onlyAdmin public {\n      require(maxSupply >= totalSupply() + recievers.length, \"Max supply reached\");\n      for (uint i = 0; i < recievers.length; i++) {\n        _mintProxy(recievers[i]);\n      }\n    }\n\n    // Users will have to spend ETH to mint NFT\n    // max mint 2 per sender\n    // should set a blockheight, before height should verify if in whitelist, \n    // after it any address can mint freely\n    function mint() public payable {\n      require(minted[msg.sender] < 2, \"Max mint 2 per sender\");\n      require(maxSupply >= totalSupply(), \"Max supply reached\");\n\n      if(whitelist[msg.sender]) {\n        require(hasRole(MINTER_ROLE, _msgSender()), \"must have minter role to mint\");\n        if(minted[msg.sender] == 0){\n          _mintProxy(msg.sender); \n        }else{\n          require(msg.value == 0.04 ether, \"Need to send 0.04 ether\");\n          if(fundAddress.send(msg.value)){\n            _mintProxy(msg.sender);\n          }\n        }\n      }\n      else{\n        require(block.timestamp >= whitelistEndDate, \"only in whitelist can mint now\");\n        require(msg.value == 0.04 ether, \"Need to send 0.04 ether\");\n        // send 0.04 ether to the contract fundAddress\n        if(fundAddress.send(msg.value)){\n          _mintProxy(msg.sender);\n        }\n      }\n    }\n\n    // admin can set whitelistEndDate\n    function setwhitelistEndDate(uint256 _whitelistEndDate) onlyAdmin public {\n      whitelistEndDate = _whitelistEndDate;\n    }\n\n    // admin can set maxSupply\n    function setMaxSupply(uint256 _maxSupply) onlyAdmin public {\n      maxSupply = _maxSupply;\n    }\n\n    // admin can set addresses array as MINTER_ROLE\n    function addToWhitelist(address[] memory _whiteListAddresses) onlyAdmin public {\n      for (uint i = 0; i < _whiteListAddresses.length; i++) {\n        whitelist[_whiteListAddresses[i]] = true;\n        super.grantRole(MINTER_ROLE, _whiteListAddresses[i]);\n      }\n    }\n\n    // check if address is in whitelist\n    function isInWhitelist(address _address) public view returns (bool) {\n      return whitelist[_address];\n    }\n\n    // get fund address\n    function getFundAddress() public view returns (address) {\n      return fundAddress;\n    }\n\n    // get remaining supply\n    function getRemainingSupply() public view returns (uint256) {\n      return maxSupply - totalSupply();\n    }\n\n    // get minted count\n    function getMintedCount(address _address) public view returns (uint256) {\n      return minted[_address];\n    }\n\n    /**\n     * @dev See {IERC165-supportsInterface}.\n     */\n    function supportsInterface(bytes4 interfaceId)\n        public\n        view\n        virtual\n        override(AccessControlEnumerable, ERC721Enumerable)\n        returns (bool)\n    {\n        return super.supportsInterface(interfaceId);\n    }\n}",
  "sourcePath": "/Users/goya/ccr/contract/contracts/CCR.sol",
  "compiler": {
    "name": "solc",
    "version": "0.8.3+commit.8d00100c.Emscripten.clang"
  },
  "schemaVersion": "3.4.3",
  "updatedAt": "2021-11-24T03:39:57.164Z",
  "networkType": "ethereum",
  "devdoc": {
    "kind": "dev",
    "methods": {
      "approve(address,uint256)": {
        "details": "See {IERC721-approve}."
      },
      "balanceOf(address)": {
        "details": "See {IERC721-balanceOf}."
      },
      "getApproved(uint256)": {
        "details": "See {IERC721-getApproved}."
      },
      "getRoleAdmin(bytes32)": {
        "details": "Returns the admin role that controls `role`. See {grantRole} and {revokeRole}. To change a role's admin, use {_setRoleAdmin}."
      },
      "getRoleMember(bytes32,uint256)": {
        "details": "Returns one of the accounts that have `role`. `index` must be a value between 0 and {getRoleMemberCount}, non-inclusive. Role bearers are not sorted in any particular way, and their ordering may change at any point. WARNING: When using {getRoleMember} and {getRoleMemberCount}, make sure you perform all queries on the same block. See the following https://forum.openzeppelin.com/t/iterating-over-elements-on-enumerableset-in-openzeppelin-contracts/2296[forum post] for more information."
      },
      "getRoleMemberCount(bytes32)": {
        "details": "Returns the number of accounts that have `role`. Can be used together with {getRoleMember} to enumerate all bearers of a role."
      },
      "grantRole(bytes32,address)": {
        "details": "Overload {grantRole} to track enumerable memberships"
      },
      "hasRole(bytes32,address)": {
        "details": "Returns `true` if `account` has been granted `role`."
      },
      "isApprovedForAll(address,address)": {
        "details": "See {IERC721-isApprovedForAll}."
      },
      "name()": {
        "details": "See {IERC721Metadata-name}."
      },
      "ownerOf(uint256)": {
        "details": "See {IERC721-ownerOf}."
      },
      "renounceRole(bytes32,address)": {
        "details": "Overload {renounceRole} to track enumerable memberships"
      },
      "revokeRole(bytes32,address)": {
        "details": "Overload {revokeRole} to track enumerable memberships"
      },
      "safeTransferFrom(address,address,uint256)": {
        "details": "See {IERC721-safeTransferFrom}."
      },
      "safeTransferFrom(address,address,uint256,bytes)": {
        "details": "See {IERC721-safeTransferFrom}."
      },
      "setApprovalForAll(address,bool)": {
        "details": "See {IERC721-setApprovalForAll}."
      },
      "supportsInterface(bytes4)": {
        "details": "See {IERC165-supportsInterface}."
      },
      "symbol()": {
        "details": "See {IERC721Metadata-symbol}."
      },
      "tokenByIndex(uint256)": {
        "details": "See {IERC721Enumerable-tokenByIndex}."
      },
      "tokenOfOwnerByIndex(address,uint256)": {
        "details": "See {IERC721Enumerable-tokenOfOwnerByIndex}."
      },
      "tokenURI(uint256)": {
        "details": "See {IERC721Metadata-tokenURI}."
      },
      "totalSupply()": {
        "details": "See {IERC721Enumerable-totalSupply}."
      },
      "transferFrom(address,address,uint256)": {
        "details": "See {IERC721-transferFrom}."
      }
    },
    "version": 1
  },
  "userdoc": {
    "kind": "user",
    "methods": {},
    "version": 1
  }
}